{"abi":[{"type":"constructor","inputs":[],"stateMutability":"nonpayable"},{"type":"function","name":"owner","inputs":[],"outputs":[{"name":"","type":"address","internalType":"address"}],"stateMutability":"view"},{"type":"function","name":"renounceOwnership","inputs":[],"outputs":[],"stateMutability":"nonpayable"},{"type":"function","name":"storeCredential","inputs":[{"name":"credHash","type":"bytes32","internalType":"bytes32"}],"outputs":[],"stateMutability":"nonpayable"},{"type":"function","name":"transferOwnership","inputs":[{"name":"newOwner","type":"address","internalType":"address"}],"outputs":[],"stateMutability":"nonpayable"},{"type":"event","name":"CredentialReceived","inputs":[{"name":"owner","type":"address","indexed":true,"internalType":"address"},{"name":"credHash","type":"bytes32","indexed":true,"internalType":"bytes32"}],"anonymous":false},{"type":"event","name":"OwnershipTransferred","inputs":[{"name":"previousOwner","type":"address","indexed":true,"internalType":"address"},{"name":"newOwner","type":"address","indexed":true,"internalType":"address"}],"anonymous":false},{"type":"error","name":"OwnableInvalidOwner","inputs":[{"name":"owner","type":"address","internalType":"address"}]},{"type":"error","name":"OwnableUnauthorizedAccount","inputs":[{"name":"account","type":"address","internalType":"address"}]}],"bytecode":{"object":"0x608060405234801561000f575f5ffd5b50335f73ffffffffffffffffffffffffffffffffffffffff168173ffffffffffffffffffffffffffffffffffffffff1603610081575f6040517f1e4fbdf70000000000000000000000000000000000000000000000000000000081526004016100789190610196565b60405180910390fd5b6100908161009660201b60201c565b506101af565b5f5f5f9054906101000a900473ffffffffffffffffffffffffffffffffffffffff169050815f5f6101000a81548173ffffffffffffffffffffffffffffffffffffffff021916908373ffffffffffffffffffffffffffffffffffffffff1602179055508173ffffffffffffffffffffffffffffffffffffffff168173ffffffffffffffffffffffffffffffffffffffff167f8be0079c531659141344cd1fd0a4f28419497f9722a3daafe3b4186f6b6457e060405160405180910390a35050565b5f73ffffffffffffffffffffffffffffffffffffffff82169050919050565b5f61018082610157565b9050919050565b61019081610176565b82525050565b5f6020820190506101a95f830184610187565b92915050565b610456806101bc5f395ff3fe608060405234801561000f575f5ffd5b506004361061004a575f3560e01c8063715018a61461004e5780638da5cb5b14610058578063cbb69f2a14610076578063f2fde38b14610092575b5f5ffd5b6100566100ae565b005b6100606100c1565b60405161006d9190610350565b60405180910390f35b610090600480360381019061008b91906103a0565b6100e8565b005b6100ac60048036038101906100a791906103f5565b61013e565b005b6100b66101c2565b6100bf5f610249565b565b5f5f5f9054906101000a900473ffffffffffffffffffffffffffffffffffffffff16905090565b6100f06101c2565b806100f96100c1565b73ffffffffffffffffffffffffffffffffffffffff167f0d630c4d2eee01ffea5b07265d90c6cf82b8a279ffe168d182eae53220c119d260405160405180910390a350565b6101466101c2565b5f73ffffffffffffffffffffffffffffffffffffffff168173ffffffffffffffffffffffffffffffffffffffff16036101b6575f6040517f1e4fbdf70000000000000000000000000000000000000000000000000000000081526004016101ad9190610350565b60405180910390fd5b6101bf81610249565b50565b6101ca61030a565b73ffffffffffffffffffffffffffffffffffffffff166101e86100c1565b73ffffffffffffffffffffffffffffffffffffffff16146102475761020b61030a565b6040517f118cdaa700000000000000000000000000000000000000000000000000000000815260040161023e9190610350565b60405180910390fd5b565b5f5f5f9054906101000a900473ffffffffffffffffffffffffffffffffffffffff169050815f5f6101000a81548173ffffffffffffffffffffffffffffffffffffffff021916908373ffffffffffffffffffffffffffffffffffffffff1602179055508173ffffffffffffffffffffffffffffffffffffffff168173ffffffffffffffffffffffffffffffffffffffff167f8be0079c531659141344cd1fd0a4f28419497f9722a3daafe3b4186f6b6457e060405160405180910390a35050565b5f33905090565b5f73ffffffffffffffffffffffffffffffffffffffff82169050919050565b5f61033a82610311565b9050919050565b61034a81610330565b82525050565b5f6020820190506103635f830184610341565b92915050565b5f5ffd5b5f819050919050565b61037f8161036d565b8114610389575f5ffd5b50565b5f8135905061039a81610376565b92915050565b5f602082840312156103b5576103b4610369565b5b5f6103c28482850161038c565b91505092915050565b6103d481610330565b81146103de575f5ffd5b50565b5f813590506103ef816103cb565b92915050565b5f6020828403121561040a57610409610369565b5b5f610417848285016103e1565b9150509291505056fea2646970667358221220a94422f134bab3be098f1fc292b15aa81a7cbedecf9225632d1b7624e6e929a964736f6c634300081c0033","linkReferences":{}},"methodIdentifiers":{"owner()":"8da5cb5b","renounceOwnership()":"715018a6","storeCredential(bytes32)":"cbb69f2a","transferOwnership(address)":"f2fde38b"},"id":23}